:020000040800F2
:10000000903E002065850008DD0A0008DF0A000830
:10001000E30A0008E70A0008EB0A000800000000F5
:10002000000000000000000000000000EF0A0008CF
:10003000F10A00080000000071D0000809830008E0
:100040007F8500087F8500087F8500087F85000880
:100050007F8500087F8500087F8500087F85000870
:100060007F8500087F8500087F8500087F85000860
:100070007F8500087F8500087F8500087F85000850
:100080007F8500087F8500087F8500087F85000840
:100090007F8500087F8500087F8500087F85000830
:1000A0007F8500087F8500087F8500087F85000820
:1000B0007F8500087F8500087F8500087F85000810
:1000C0007F8500087F8500087F8500087F85000800
:1000D0007F850008D38400087F8500087F8500089D
:1000E0007F8500087F8500087F8500087F850008E0
:1000F0007F8500087F8500087F8500087F850008D0
:100100007F8500087F8500087F8500087F850008BF
:100110007F8500087F8500087F8500087F850008AF
:100120007F8500087F8500087F8500087F8500089F
:100130007F8500087F8500087F8500087F8500088F
:100140007F8500087F8500087F8500087F8500087F
:100150007F8500087F8500087F8500087F8500086F
:100160007F8500087F8500087F8500087F8500085F
:100170007F8500087F8500087F8500087F8500084F
:100180007F8500087F85000800F002F800F047F83E
:100190000AA090E8000C82448344AAF10107DA45E2
:1001A00001D100F03CF8AFF2090EBAE80F0013F0ED
:1001B000010F18BFFB1A43F001031847C8F80600E7
:1001C000E8F80600103A24BF78C878C1FAD8520778
:1001D00024BF30C830C144BF04680C6070470000C1
:1001E0000023002400250026103A28BF78C1FBD840
:1001F000520728BF30C148BF0B60704764290CF01C
:10020000DF8778290DF0188073290DF0FB8000201E
:1002100070471FB50DF0D3FF1FBD10B510BD0DF019
:100220002BF91146FFF7F5FF00F0DAFB0DF049F965
:1002300003B4FFF7F2FF03BC08F0ECF8F8B523268F
:100240006E27D224D2251F20FC4908800020214699
:100250000090304610231C2200F0DAFE00202146D8
:10026000009006F1100010231D2200F0D1FE0020A6
:100270002146009006F120001023202200F0C8FE45
:1002800000202146009006F130001023212200F0CA
:10029000BFFE002029460090384610231E2200F0A1
:1002A000B7FE00202946009007F1100010231F22FE
:1002B00000F0AEFE00202946009007F12000102338
:1002C000202200F0A5FE00202946009007F1300012
:1002D0001023212200F09CFE4FF47840D74908807B
:1002E000F8BD02468A4202DD501A80B27047881A71
:1002F00080B2FBE72DE9FC4123256E26D227B846C4
:1003000000244FF47840CD490880CDA010210B4641
:10031000C822CDE9001032211E2005F00EFC00BFDE
:100320000BE00020E2B21E2101EB04110090C8B2E4
:100330001023462100F06CFE641C082CF1DB002425
:100340000DE0002004F10801CAB21E2101EB0411E6
:100350000090C8B210235A2100F05AFE641C032CEE
:10036000EFDBBCA010210B46C822CDE900105A21BA
:100370004E2005F0E2FB1F20B0490880002010232A
:1003800019226E2100901E2000F042FE0020102352
:100390001A226E2100904E2000F03AFE0020102319
:1003A0001B226E2100905E2000F032FE00240DE042
:1003B000002004F10B01CAB2642101EB041100908A
:1003C000C8B210236E2100F023FE641C032CEFDB67
:1003D000002010230E22822100901E2000F018FE23
:1003E000002010230F22822100904E2000F010FEEA
:1003F000002010231A46822100905E2000F008FEA3
:1004000010200A23964A82210090642005F0DDFA2C
:1004100000240DE0002004F11101CAB21E2101EBFD
:1004200004110090C8B21023962100F0F1FD641C65
:10043000052CEFDB8BA010210B46C822CDE9001064
:10044000AA211E2005F079FB002010231622AA21E4
:1004500000901E2000F0DCFD002010231722AA21AE
:1004600000904E2000F0D4FD002010231822AA2175
:1004700000905E2000F0CCFD002070490880C02371
:10048000B4226C211D2005F0A3F98023B422194663
:100490001D2005F045F99423B42219461D2005F0CE
:1004A0003FF9A823B42219461D2005F039F942F678
:1004B000123062490880E3236422D121222005F012
:1004C00087F9E4236522D021212005F081F94FF43A
:1004D00078405A490880E323AF22D1216D2005F0EE
:1004E00077F9E423B022D0216C2005F071F91F20A8
:1004F000524908800020F9B20090E8B210231C2273
:1005000000F086FD0020F9B205F110020090D0B293
:1005100010231D2200F07CFD0020F9B205F120021D
:100520000090D0B21023202200F072FD0020F9B21A
:1005300005F130020090D0B21023212200F068FDB6
:10054000002008F0FF010090F0B210231E2200F0FE
:100550005FFD002008F0FF0106F110020090D0B20C
:1005600010231F2200F054FD002008F0FF0106F1C7
:1005700020020090D0B21023202200F049FD00207C
:1005800008F0FF0106F130020090D0B210232122C2
:1005900000F03EFD4FF4784028490880BDE8FC811A
:1005A0000EB54AE005F002FB029002A9324800684D
:1005B0000BF014FC002010210423CDE90010BDF83D
:1005C000082096216E2005F04AFA05F087FB0446C4
:1005D000002C0CDA604204B228A010210B460A4617
:1005E000CDE90010AA216E2005F0A7FA09E024A0A9
:1005F00010210B460A46CDE90010AA216E2005F015
:100600009CFA642094FBF0F50020102102232A4676
:10061000CDE90010AA21762005F021FA642094FB90
:10062000F0F100FB11450020102102232A46CDE9FC
:100630000010AA218E2005F012FAB3E72400002052
:100640004578706C6F7265722053544D3332463466
:1006500000000000323032342F332F3239000000D6
:100660008C4379782020202020202020202020303A
:10067000302E303043000000000000202D0000002C
:100680002000000008B50026002449E0002005F005
:10069000F1FB0546012D2ED106200CF06BF8002051
:1006A00001F0CBFA022C00DD00244CB9E44850F8EC
:1006B0002400A523F02250210090002000F087FCA8
:1006C000012C0AD1DE4850F824004FF4B473E8221C
:1006D00000210090084600F07AFC022C0AD1D8488C
:1006E00050F824004FF4B473CA2200210090142063
:1006F00000F06DFC641C022D12D14FF6FF7001F06A
:100700009CFA0CF08DFC06460623CE4A0021AFF27F
:100710006F100BF083FF30460CF086FCFFF7EAFD0C
:10072000B4E71CB500260024AEE0C74841680020AD
:100730008847C54890F8200000F08000002856D077
:10074000C1488089C1490988884253DABE48C08AB5
:10075000BE49498888424DDABB4880896E2822DD2F
:10076000B948C08AEC281EDAB74880899E281ADA70
:10077000B548C08AD22816DD06200BF0FBFFB4A0D6
:1007800010210B463222CDE9001096216E2005F093
:10079000D4F9AFA010210B463222CDE90010AA21D6
:1007A0006E2005F0CAF9A8488089232822DDA648D2
:1007B000C08AEC281EDAA448808953281ADAA24895
:1007C000C08AD22816DD4FF6FF7001F036FA0CF021
:1007D00027FC064606239B4A0021AFF23B200BF084
:1007E0001DFF30460CF020FCFFF784FD02E00A20DC
:1007F00007F0E6FD002005F03DFB0546012D2ED15A
:1008000006200BF0B7FF002001F017FA022C00DDE4
:1008100000244CB98A4850F82400A523F022502126
:100820000090002000F0D3FB012C0AD1844850F83E
:1008300024004FF4B473E82200210090084600F031
:10084000C6FB022C0AD17E4850F824004FF4B47342
:10085000CA2200210090142000F0B9FB641C022D74
:1008600012D14FF6FF7001F0E8F90CF0D9FB064603
:100870000623744A0021AFF2D7200BF0CFFE30469A
:100880000CF0D2FBFFF736FD4FE708B50AE06A46E9
:100890000021724800680BF0E6F9047821467048A0
:1008A00009F043FDF3E7002663E06E48008800F49A
:1008B000004000284ED06B4805786B4800783128FE
:1008C00005D16AA00CF012FC00206B490860664854
:1008D0000078322805D169A00CF008FC0120664997
:1008E000086061480078332805D167A00CF0FEFB52
:1008F00006200BF03FFF5C48007834280FD165A03C
:100900000CF0F4FB0CF08CFB064606234D4A00214C
:10091000AFF273300BF082FE30460CF085FB60A026
:100920000CF0E4FB00240DE04F48015D614808F045
:100930003BFC00BF40215F4808F0E6FC0128F9D1EC
:10094000601CC4B2AC42EFDB5BA00CF0CFFB00201C
:100950004449088000205A4908604FF4967007F017
:100960002FFD01205749C1F8A8024FF4967007F0F7
:1009700027FD9AE770B50446002500BF0CF050FB38
:10098000054600200BF0E9F83449086006232D4A9B
:100990000021AFF2F3300BF041FE07234A4A002159
:1009A000AFF2FD000BF03AFE0823484A0021AFF2F7
:1009B00025100BF033FE0923454A0021AFF29D209C
:1009C0000BF02CFE0A23434A0021AFF247300BF014
:1009D00025FE0F200CF0A2F828460CF025FB70BD78
:1009E00010B54FF4A06007F0DDFDA82007F098FCDB
:1009F0004FF4E13007F01BFD00F084F901F04FF9EE
:100A000005F0F2F800F09EF905F0CAF840F2A311E3
:100A1000632005F0C1F905F00FFA0B49086880471B
:100A2000FFF768FC0AF061F90F232B4A0021AFF2AF
:100A3000BB000BF0F3FD0AF07DFA002010BD0000B2
:100A400004000020CC04002034000020D82C00201A
:100A50002020204F464620202020000000000020BB
:100A60000020004074000020E62C0020B9D8B1D549
:100A70004C43440A00000000BC824042BFAAC6F4B6
:100A80004C43440A00000000B9D8B1D5B2C9BCAF8C
:100A90000A000000BFAACABCB2C9BCAF0A0000006D
:100AA0000D0AC4FAB7A2CBCDB5C4CFFBCFA2CEAA54
:100AB0003A0D0A00001001400D0A0D0A0000000066
:100AC000A882424200804242CC060020CC0800208E
:100AD000CC0A0020CC0C0020CC020020704700BFC4
:100AE000FEE700BFFEE700BFFEE700BFFEE770477E
:100AF000704700000CB50020019000907648006817
:100B000040F480307449086000BF7348006800F406
:100B1000003000900198401C0190009818B901988D
:100B2000B0F5A04FF1D16C48006800F4003010B16E
:100B30000120009001E0002000900098012846D19B
:100B400065484030006840F080506349403108609B
:100B50006248006840F44040604908605E480830E0
:100B600000685D49083108600846006840F40040AC
:100B700008600846006840F4A05008605848091F03
:100B80000860081F006840F08070091F086000BFFF
:100B90005148006800F000700028F9D040F205705C
:100BA000504908604C480830006820F003004A496A
:100BB000083108600846006840F00200086000BF85
:100BC00045480830006800F00C000828F8D10CBD3A
:100BD00010B54548006840F47000434908603E483D
:100BE000006840F001003C49086000203A490831A3
:100BF0000860394800683D490840374908603C486A
:100C0000091D0860081F006820F48020091F086083
:100C1000002031490C310860FFF76CFF4FF0006095
:100C200031498039086010BD70B5002000220223D0
:100C300000240221284D08352D6805F00C0020B154
:100C4000042806D0082834D107E02A4D2A4E356002
:100C500033E02A4D284E35602FE01F4D2D1D2D68A5
:100C6000C5F380541C4D2D1D2D6805F03F0154B176
:100C7000224DB5FBF1F5184E361D3668C6F38816C1
:100C800005FB06F209E01B4DB5FBF1F5124E361DD2
:100C90003668C6F3881605FB06F20F4D2D1D2D682C
:100CA000C5F301456D1C6B00B2FBF3F5124E3560C8
:100CB00003E0104D104E356000BF00BF064D0835F3
:100CC0002D68C5F303150E4E705D0B4D2D68C540A4
:100CD000094E356070BD00000038024000700040D1
:100CE00008544007003C024088ED00E0FFFFF6FE9C
:100CF000103000240024F4001000002000127A00BC
:100D0000140000201CB50121202007F0DFFF4FF464
:100D1000C060009001208DF8040000208DF80600CE
:100D200003208DF8050001208DF80700694604486E
:100D300007F02EFD4FF4C061014807F0A5FD1CBD72
:100D40000014024000B58DB00121202007F0BEFF45
:100D50000121880208F014F880200B9003208DF800
:100D6000300000208DF833000BA92C4807F010FD4F
:100D70000121880208F059F800214FF4806008F042
:100D800054F8002007900A9009904FF480300890A2
:100D900007A808F053FB002001908DF808008DF89B
:100DA00009000390059001208DF8180001A91C4846
:100DB00008F015FB01211A4808F057FB0DB000BDE3
:100DC00010B50446072301222146154808F08DFB83
:100DD000134808F0E6FB00BF0221114808F002FDAD
:100DE0000028F9D00E4808F018FC10BD2DE9F0419C
:100DF00007460C460025002608E03846FFF7E0FFCE
:100E00000544052007F0DCFA701CC6B2A642F4DBEC
:100E1000B5FBF4F080B2BDE8F081000000140240A0
:100E200000220140FE4A10804FF0D842A2F8801004
:100E3000704701B5BDF800000090BDF80000F8490A
:100E4000891C088008BD01B5BDF800000090BDF800
:100E50000000F349088008BD70B504460D461646EB
:100E6000F048808849F24131884205D0ED488088B9
:100E700045F21031884214D1EA494889FFF7E3FF6F
:100E80002012FFF7D6FFE0B2FFF7D3FFE5498889CC
:100E9000FFF7D9FF2812FFF7CCFFE8B2FFF7C9FF31
:100EA0008CE0E048808845F21051884220D1DD492D
:100EB0004889FFF7C8FF2012FFF7BBFFD9494989CE
:100EC000491C88B2FFF7BFFFE0B2FFF7B2FFD54978
:100ED0008889FFF7B8FF2812FFF7ABFFD14989894E
:100EE000491C88B2FFF7AFFFE8B2FFF7A2FF65E049
:100EF000CC48808841F66311884228D1C94880795E
:100F000020B9C8480088401E001B84B2C5494889E2
:100F1000FFF799FF2012FFF78CFFE0B2FFF789FF80
:100F20002012FFF786FFE0B2FFF783FFBD498889F3
:100F3000FFF789FF2812FFF77CFFE8B2FFF779FF80
:100F40002812FFF776FFE8B2FFF773FF36E0B548E7
:100F5000808846F6040188421DD1B2488079012874
:100F600004D1B0480088401E001B84B2AD494889B6
:100F7000FFF769FF2012FFF75CFFE0B2FFF759FFB0
:100F8000A8498889FFF75FFF2812FFF752FFE8B2F0
:100F9000FFF74FFF12E0A3488079012804D1A14850
:100FA0000088401E001B84B29E4948892146FFF7F5
:100FB00039FF9C4988892946FFF734FF9948008901
:100FC000974908804FF0D840A0F8806070BD2DE9A7
:100FD000F04F04460D4690469946DDF824B0DA46B7
:100FE000AFB20FE0A6B207E03AF8022B394630461E
:100FF000FFF732FF701C86B208EB0400B042F3DC4E
:10100000781C87B209EB0500B842EBDCBDE8F08F35
:101010002DE9FF4F07460D461C46AA462046E2171B
:1010200004EB5272D2102146E31704EB5373DB102A
:10103000A4EBC3030BB1012300E000231A44624375
:1010400002F0FF0B002635E0102C06D176490298FD
:1010500001EB401010F8068001E0BDE8FF8F4FF073
:10106000000921E008F0800030B17048028829466C
:101070003846FFF7F1FE05E06D48028829463846FC
:10108000FFF7EAFE4FEA48604FEA1068681CC5B2F5
:10109000A5EB0A00A04203D15546781CC7B206E072
:1010A00009F1010000F0FF09B9F1080FDADB00BF18
:1010B000701CC6B25E45C7DB00BFCEE708B5584816
:1010C000801C00880090BDF8000008BD10B50446E3
:1010D0002046FFF7B8FE052007F048F9FFF7EEFFBE
:1010E00010BD504800894E49088070474C49891C02
:1010F0000880704730B5014601F01F04C1F3451365
:10110000CA0AE50205EB43151544A8B230BD00BF7D
:10111000011EA0F10102D0B2FAD1704730B50446E9
:101120000D464048808849F24131884205D03D480B
:10113000808845F21031884214D13A494889FFF736
:1011400082FE2012FFF775FEE0B2FFF772FE35490E
:101150008889FFF778FE2812FFF76BFEE8B2FFF7E9
:1011600068FEB7E02F48808846F6040188421DD10A
:101170002C488079012804D12A480088401E001B91
:1011800084B228494889FFF75EFE2012FFF751FE1E
:10119000E0B2FFF74EFE23498889FFF754FE28127C
:1011A000FFF747FEE8B2FFF744FE93E01D48808852
:1011B00041F66311884253D11A488079A8B9194879
:1011C0000088401E001B84B216494889FFF73BFE89
:1011D0000020FFF72EFE0020FFF72BFE2012FFF766
:1011E00028FEE0B2FFF725FE16E00E494889FFF71A
:1011F0002AFE2012FFF71DFEE0B2FFF71AFE094992
:101200000988491EC1F30F20FFF713FE054909782D
:10121000491EC8B2FFF70DFE024988890AE00000A6
:101220007E00006CD82C0020A0F3060824000020CB
:1012300026000020FFF707FE2812FFF7FAFDE8B2AC
:10124000FFF7F7FDFE494988491EC1F30F20FFF75C
:10125000F0FDFB498978491EC8B2FFF7EAFD39E085
:10126000F748808845F21051884220D1F4494889D6
:10127000FFF7E9FD2012FFF7DCFDF1494989491C20
:1012800088B2FFF7E0FDE0B2FFF7D3FDEC498889B3
:10129000FFF7D9FD2812FFF7CCFDE9498989491CE0
:1012A00088B2FFF7D0FDE8B2FFF7C3FD12E0E448D3
:1012B0008079012804D1E2480088401E001B84B2D6
:1012C000DF4948892146FFF7ADFDDD498889294678
:1012D000FFF7A8FD30BD2DE9F04105460E4600247C
:1012E0000027A046D6480088A84203DDD44840889D
:1012F000B04202DC0020BDE8F08131462846FFF70D
:101300000DFFCF48808849F24131884211D0CC4846
:10131000808846F6040188420BD0C948808845F28F
:101320001031884205D0C648808841F66311884252
:1013300003D12E20FFF787FD0DE0C148808845F2DC
:101340001051884204D14FF43850FFF77CFD02E081
:101350002220FFF778FDBA48808849F22031884280
:1013600002D10220FFF7D3FEFFF7A8FE0446B448DF
:10137000808841F66311884201D12046BBE70220F4
:10138000FFF7C5FEFFF79AFE0446AD48808849F294
:10139000413188420BD0AA48808845F210318842FA
:1013A00005D0A748808845F2105188420AD1022012
:1013B000FFF7ADFEFFF782FE8046E7B24FF6FF7003
:1013C00000EA07279E48808849F22531884216D0D6
:1013D0009B48808844F23551884210D098488088D4
:1013E000091F88420BD0964880884BF205518842ED
:1013F00005D0934880884CF20551884201D120469F
:1014000079E78F48808849F2413188420BD08C4877
:10141000808845F21031884205D08948808845F29D
:101420001051884207D1E012C002B91240EA4110BF
:1014300040EAE8205FE72046FFF75CFE5BE700B587
:101440007F48808849F24131884211D07C488088A9
:1014500046F6040188420BD07948808845F2103165
:10146000884205D07648808841F66311884203D1CE
:101470002920FFF7E8FC0FE07148808845F2105101
:10148000884204D14FF42450FFF7DDFC04E040F221
:1014900073110720FFF7C6FC00BD00B568488088BF
:1014A00049F24131884211D06548808846F60401EE
:1014B00088420BD06248808845F21031884205D0BE
:1014C0005F48808841F66311884203D12820FFF7E6
:1014D000BAFC0EE05A48808845F21051884204D187
:1014E0004FF42050FFF7AFFC03E000210720FFF787
:1014F00099FC00BDF0B505460024002750488079CE
:1015000001280BD14E48808846F60401884205D058
:101510004B48808841F66311884208D14848807959
:10152000F0B94748808841F66311884218D1082DE8
:1015300015D2DFE805F00406080A0C0E1012062585
:101540000DE007250BE0042509E0052507E001254E
:1015500005E0002503E0032501E0022500BF00BFF0
:101560003748808849F24131884217D03448808812
:1015700046F60401884211D03148808845F2103186
:1015800088420BD02E48808845F21051884205D001
:101590002B48808841F6631188427DD1082D1CD2EA
:1015A000DFE805F00406090C0F12151800BF14E05F
:1015B00044F0800411E044F040040EE044F0C00424
:1015C0000BE044F0200408E044F0600405E044F03F
:1015D000A00402E044F0E00400BF00BF1848808887
:1015E00045F21051884202D14FF4585700E0362797
:1015F0001348808845F2103188420DD01048808809
:1016000045F21051884207D00D48808841F6631199
:10161000884201D044F008040948808846F6040155
:10162000884201D144F0020421463846FFF7FAFB14
:101630000348808841F66311884221D002E000000F
:10164000D82C002004F0200068B1FE480088FD4935
:101650004988884214DAFB4806884088F94908809E
:10166000084646800CE0F7480088F64949888842D9
:1016700006DDF44806884088F2490880084646801E
:10168000F048808845F21051884254D1ED4948898C
:10169000FFF7D9FB002000E07CE0FFF7CAFBE94937
:1016A0004989491C88B2FFF7CEFB0020FFF7C1FB38
:1016B000E4494989891C88B2FFF7C5FBE1490988DB
:1016C000491EC1F30F20FFF7B4FBDE494989C91C4D
:1016D00088B2FFF7B8FBDB490978491EC8B2FFF7AB
:1016E000A8FBD8498889FFF7AEFB0020FFF7A1FBD4
:1016F000D4498989491C88B2FFF7A5FB0020FFF770
:1017000098FBD0498989891C88B2FFF79CFBCD4999
:101710004988491EC1F30F20FFF78BFBC94989890E
:10172000C91C88B2FFF78FFBC6498978491EC8B229
:10173000FFF77FFB55E0C3494889FFF784FB002092
:10174000FFF777FB0020FFF774FBBE490988491EAD
:10175000C1F30F20FFF76DFBBA490978491EC8B2E3
:10176000FFF767FBB7498889FFF76DFB0020FFF79C
:1017700060FB0020FFF75DFBB2494988491EC1F3B9
:101780000F20FFF756FBAF498978491EC8B2FFF713
:1017900050FB26E0082D1CD2DFE805F004070A0DF7
:1017A0000F12151844F0300413E044F0100410E058
:1017B00044F020040DE000BF0BE044F0380408E0E2
:1017C00044F0280405E044F0180402E044F0080462
:1017D00000BF00BF032744F4805421463846FFF77A
:1017E00021FBF0BD30B504460D4629462046FFF7E3
:1017F00095FCFFF776FC944800889449088030BD3A
:1018000070B52DED048B0446BE20FFF71CFB0520B0
:10181000FFF70FFB20460CF01BF941EC190B9FED75
:101820008C0B53EC102B0CF063F941EC180B0CF003
:10183000CBF885B22846FFF7FCFA0120FFF7F9FA4A
:10184000FF20FFF7F6FA0020FFF7F3FA0020FFF77A
:10185000F0FABDEC048B70BD10B50446002C66D1C7
:1018600078498871F02008804FF4A07048800846BD
:10187000808849F2413188420BD07248808846F610
:101880000401884205D06F48808845F210318842B3
:101890001AD12C206B4908812A2048812B2088816D
:1018A0000846808846F60401884205D0654880884D
:1018B00045F21031884206D14FF4A070614908808A
:1018C0004FF4F0704880A1E05E48808845F21051E6
:1018D000884210D14FF430505A4908814FF42850B3
:1018E00048814FF42C5088814FF4F07008804FF4F9
:1018F000487048808AE05348808841F663118842E6
:101900000DD12C204F4908812B2048812A20888125
:101910004FF4F07008804FF44870488076E0222041
:101920004849088120204881212088816EE00120DB
:10193000444988714FF4A0700880F0204880084620
:10194000808849F24131884205D03E48808845F27E
:101950001031884207D12C203A4908812A20488139
:101960002B2088813FE03748808846F60401884272
:1019700007D12C20334908812B2048812A208881D7
:1019800031E03048808845F21051884210D14FF440
:1019900030502C4908814FF4285048814FF42C5086
:1019A00088814FF4487008804FF4F07048801AE046
:1019B0002448808841F6631188420DD12C202149AA
:1019C00008812A2048812B2088814FF448700880A4
:1019D0004FF4F070488006E022201A490881212047
:1019E0004881202088811748808846F60401884273
:1019F00005D01448808845F21031884206D14FF452
:101A0000F070104908804FF4A07048800020FFF764
:101A100071FD10BD2DE9F04F86B004460D4690468D
:101A2000994604EB0800401E86B205EB0900401EF3
:101A300087B20448808849F24131884220D0014869
:101A4000808809E0D82C0020240000208000006C51
:101A5000666666666666044045F2103188420FD0BD
:101A6000FE48808846F60401884209D0FB48807908
:101A7000012826D1F948808841F66311884220D197
:101A8000F6494889FFF7DFF92012FFF7D2F9E0B2F3
:101A9000FFF7CFF93012FFF7CCF9F0B2FFF7C9F931
:101AA000EE498889FFF7CFF92812FFF7C2F9E8B2AB
:101AB000FFF7BFF93812FFF7BCF9F8B2FFF7B9F931
:101AC000B8E0E648808841F66311884234D1E348A3
:101AD0000088A0EB0800001B84B205EB0900401E43
:101AE0001FFA80F9DD494889FFF7ADF92012FFF7A9
:101AF000A0F9E0B2FFF79DF904EB0801491EC1F31C
:101B00000F20FFF796F904EB0801491EC8B2FFF752
:101B100090F9D2498889FFF796F92812FFF789F9D9
:101B2000E8B2FFF786F94FEA2920FFF782F909F0BA
:101B3000FF00FFF77EF97DE0C848808845F210512C
:101B4000884244D1C5494889FFF77DF92012FFF743
:101B500070F9C2494989491C88B2FFF774F9E0B2AB
:101B6000FFF767F9BD494989891C88B2FFF76BF90E
:101B70003012FFF75EF9B9494989C91C88B2FFF7ED
:101B800062F9F0B2FFF755F9B4498889FFF75BF9BC
:101B90002812FFF74EF9B1498989491C88B2FFF72D
:101BA00052F9E8B2FFF745F9AC498989891C88B236
:101BB000FFF749F93812FFF73CF9A8498989C91C90
:101BC00088B2FFF740F9F8B2FFF733F932E0A348E3
:101BD000807901280ED1AA46BB46A0480088801B08
:101BE000401E80B201909D480088001B401E80B2BC
:101BF000009003E0A246B34601950097502005905F
:101C00005120049052200390532002905146059891
:101C1000FFF708F959460498FFF704F9019903986A
:101C2000FFF700F900990298FFF7FCF829462046D3
:101C3000FFF774FA06B0BDE8F08F70B504460026D1
:101C400086480588408845438448808846F60401D4
:101C5000884216D181488079012812D100207F491D
:101C600088712A2048812B20888100210846FFF7AF
:101C700055FA0120794988712B2048812A208881D2
:101C800003E000210846FFF749FAFFF72AFA002689
:101C900002E073480480761CAE42FAD370BD00B5F2
:101CA000A1B00020209001217A2007F00FF8012137
:101CB000084607F043F84FF400401E9001208DF8CD
:101CC0007C0000208DF87E0002208DF87D00012030
:101CD0008DF87F001EA9634806F05AFD4CF2337060
:101CE0001E9002208DF87C0000208DF87E000320DD
:101CF0008DF87D0001208DF87F001EA95A4806F05E
:101D000047FD4FF680701E9002208DF87C00002069
:101D10008DF87E0003208DF87D0001208DF87F0076
:101D20001EA9524806F034FD4FF480501E90022048
:101D30008DF87C0000208DF87E0003208DF87D005A
:101D400001208DF87F001EA9494806F021FD4FF4BF
:101D500080501E9002208DF87C0000208DF87E00BF
:101D600003208DF87D0001208DF87F001EA94148D9
:101D700006F00EFD0C2200213B4806F094FD0C22DB
:101D80000121394806F08FFD0C220421364806F067
:101D90008AFD0C220521344806F085FD0C2208211D
:101DA000314806F080FD0C2209212F4806F07BFD0A
:101DB0000C220A212C4806F076FD0C220E212A481E
:101DC00006F071FD0C220F21274806F06CFD0C2255
:101DD0000721264806F067FD0C220821234806F05B
:101DE00062FD0C220921214806F05DFD0C220A212A
:101DF0001E4806F058FD0C220B211C4806F053FD2E
:101E00000C221146194806F04EFD0C220D211748F0
:101E100006F049FD0C220E21144806F044FD0C2268
:101E20000F21124806F03FFD0C221146104806F023
:101E30003AFD0C2211460F4806F035FD0F200890A0
:101E4000002009903C200A9000200B900C900D90EF
:101E50000E9009200190002002900DE0D82C002067
:101E60008000006C00040240000C024000100240A0
:101E70000014024000180240082003900020049043
:101E800005900690079006200F900020109011906A
:101E90001020129000201390159014901690179017
:101EA0004FF480501890002019904FF480401A9001
:101EB00000201B9008A81C9001A81D900FA807F0F7
:101EC000D0FC0121062007F057FD322006F078FAF9
:101ED00001210020FEF7A6FF322006F071FA002053
:101EE000FFF7F4F8FE49888008468088FF280ADB5F
:101EF000084680884FF6FF71884204D0F8488088F1
:101F0000B0F5134F7ED1D320FEF79DFFFFF7D6F833
:101F1000F3498880FFF7D2F8F1498880FFF7CEF8BF
:101F2000EF498880084680884FF6FF7101EA00205B
:101F3000EB498880FFF7C2F8E94989880843E849F6
:101F400088800846808849F2413188425AD0BF20B3
:101F5000FEF779FFFFF7B2F8E1498880FFF7AEF8A6
:101F6000DF498880FFF7AAF8DD498880FFF7A6F8E7
:101F7000DB498880084680884FF6FF7101EA00201F
:101F8000D7498880FFF79AF8D54989880843D4490A
:101F900088800846808846F6040188427AD0D4209A
:101FA000FEF751FFFFF78AF8CD498880FFF786F8E2
:101FB000CB498880FFF782F8C94988800846808825
:101FC0004FF6FF7101EA0020C5498880FFF776F8D7
:101FD000C34989880843C24988800846808845F2F9
:101FE0001031884256D04FF45A40FEF72CFFFFF7CD
:101FF00065F8BB4988804FF45B40FEF724FFFFF78C
:102000005DF800E046E0B6498880084680884FF6D3
:10201000FF7101EA0020B24988804FF45C40FEF76E
:1020200012FFFFF74BF8AE4989880843AC49888016
:1020300008468088B0F5004F02D145F210508880E4
:10204000A748808845F21051884223D0A120FEF78E
:10205000FAFEFFF733F8A2498880FFF72FF8A0496E
:102060008880084680884FF6FF7101EA00209C496D
:102070008880FFF723F89A4989880843984988801F
:102080000846808845F26171884203D141F66310A9
:10209000934988809248808849F24131884211D022
:1020A0008F48808845F2103188420BD08C48808858
:1020B00045F21051884205D08948808841F6631165
:1020C00088421DD18748006820F00F004FF0204162
:1020D000C1F81C010846D0F81C0120F47060C1F85A
:1020E0001C010846D0F81C0140F00300C1F81C0197
:1020F0000846D0F81C0140F40070C1F81C0128E02B
:102100007748808846F60401884205D07448808864
:102110004CF2055188421CD17248006820F00F0033
:102120004FF02041C1F81C010846D0F81C0120F4F2
:102130007060C1F81C010846D0F81C0140F00A008C
:10214000C1F81C010846D0F81C0140F44060C1F8F9
:102150001C016348818864A00AF0C8FF6048808839
:1021600049F2413188427CD1CF20FEF76CFE00203D
:10217000FEF75FFEC120FEF75CFE3020FEF759FE41
:10218000ED20FEF760FE6420FEF753FE0320FEF70D
:1021900050FE1220FEF74DFE8120FEF74AFEE82099
:1021A000FEF751FE8520FEF744FE1020FEF741FEAB
:1021B0007A20FEF73EFECB20FEF745FE3920FEF7E3
:1021C00038FE2C20FEF735FE0020FEF732FE3420CC
:1021D000FEF72FFE0220FEF72CFEF720FEF733FE5F
:1021E0002020FEF726FEEA20FEF72DFE0020FEF757
:1021F00020FE0020FEF71DFEC020FEF724FE1B205F
:10220000FEF717FEC120FEF71EFE0120FEF711FEAD
:10221000C520FEF718FE3020FEF70BFE3020FEF73B
:1022200008FEC720FEF70FFEB720FEF702FE36209D
:10223000FEF709FE4820FEF7FCFD3A20FEF703FEFC
:102240005520FEF7F6FDB120FEF7FDFD0020FEF75C
:10225000F0FD1A20FEF7EDFDB620FEF7F4FD0A2092
:1022600000E0A7E0FEF7E5FDA220FEF7E2FDF22088
:10227000FEF7E9FD0020FEF7DCFD2620FEF7E3FD7A
:102280000120FEF7D6FDE020FEF7DDFD0F20FEF772
:10229000D0FD2A20FEF7CDFD2820FEF7CAFD08203C
:1022A000FEF7C7FD0E20FEF7C4FD0820FEF7C1FDB6
:1022B0005420FEF7BEFDA920FEF7BBFD4320FEF72C
:1022C000B8FD0A20FEF7B5FD0F20FEF7B2FD002095
:1022D000FEF7AFFD0020FEF7ACFD00200CE0000093
:1022E000D82C00201C0100A0204C43442049443A33
:1022F00025780D0A00000000FEF79BFD0020FEF788
:1023000098FDE120FEF79FFD0020FEF792FD1520CD
:10231000FEF78FFD1720FEF78CFD0720FEF789FDE5
:102320001120FEF786FD0620FEF783FD2B20FEF729
:1023300080FD5620FEF77DFD3C20FEF77AFD05204E
:10234000FEF777FD1020FEF774FD0F20FEF771FDFC
:102350003F20FEF76EFD3F20FEF76BFD0F20FEF7DE
:1023600068FD2B20FEF76FFD0020FEF762FD0020C8
:10237000FEF75FFD0120FEF75CFD3F20FEF759FDF3
:102380002A20FEF760FD0020FEF753FD0020FEF737
:1023900050FD0020FEF74DFDEF20FEF74AFD112015
:1023A000FEF751FD782006F00BF82920FEF74BFDD3
:1023B00003F01DB9FE48808846F6040188427CD1AE
:1023C0001120FEF740FD142005F0FAFFD020FEF7A3
:1023D0003AFD0720FEF72DFD4220FEF72AFD1D20C5
:1023E000FEF727FDD120FEF72EFD0020FEF721FD90
:1023F0001A20FEF71EFD0920FEF71BFDD220FEF776
:1024000022FD0120FEF715FD2220FEF712FDC0205F
:10241000FEF719FD1020FEF70CFD3B20FEF709FD2D
:102420000020FEF706FD0220FEF703FD1120FEF757
:1024300000FDC520FEF707FD0320FEF7FAFCC820CB
:10244000FEF701FD0020FEF7F4FC2520FEF7F1FC6D
:102450002120FEF7EEFC0520FEF7EBFC0020FEF746
:10246000E8FC0A20FEF7E5FC6520FEF7E2FC2520EB
:10247000FEF7DFFC7720FEF7DCFC5020FEF7D9FCEE
:102480000F20FEF7D6FC0020FEF7D3FCF820FEF765
:10249000DAFC0120FEF7CDFCFE20FEF7D4FC002084
:1024A000FEF7C7FC0220FEF7C4FC2020FEF7CBFCA1
:1024B0003620FEF7C8FC082000E02CE0FEF7B9FC4F
:1024C0003A20FEF7C0FC5520FEF7B3FC2B20FEF7A8
:1024D000BAFC0020FEF7ADFC0020FEF7AAFC0120AC
:1024E000FEF7A7FC3F20FEF7A4FC2A20FEF7ABFC7A
:1024F0000020FEF79EFC0020FEF79BFC0120FEF76B
:1025000098FCDF20FEF795FC782005F059FF292084
:10251000FEF799FC4CE7A648808845F210318842C6
:1025200040F07C87ED20FEF78EFC0120FEF781FC59
:10253000FE20FEF77EFCEE20FEF785FCDE20FEF797
:1025400078FC2120FEF775FCF120FEF77CFC0120D1
:10255000FEF76FFCDF20FEF776FC1020FEF769FC2B
:10256000C420FEF770FC8F20FEF763FCC620FEF748
:102570006AFC0020FEF75DFCE220FEF75AFCE22038
:10258000FEF757FCE220FEF754FCBF20FEF75BFC91
:10259000AA20FEF74EFCB020FEF755FC0D20FEF7FA
:1025A00048FC0020FEF745FC0D20FEF742FC002011
:1025B000FEF73FFC1120FEF73CFC0020FEF739FC43
:1025C0001920FEF736FC0020FEF733FC2120FEF731
:1025D00030FC0020FEF72DFC2D20FEF72AFC002009
:1025E000FEF727FC3D20FEF724FC0020FEF721FC2F
:1025F0005D20FEF71EFC0020FEF71BFC5D20FEF7B1
:1026000018FC0020FEF715FCB120FEF71CFC802012
:10261000FEF70FFC0020FEF70CFC8B20FEF709FCF8
:102620000020FEF706FC9620FEF703FC0020FEF7D4
:1026300000FCB220FEF707FC0020FEF7FAFB0020AA
:10264000FEF7F7FB0220FEF7F4FB0020FEF7F1FB9C
:102650000320FEF7EEFB0020FEF7EBFBB320FEF7B6
:10266000F2FB0020FEF7E5FB0020FEF7E2FB002076
:10267000FEF7DFFB0020FEF7DCFB0020FEF7D9FBB6
:102680000020FEF7D6FB0020FEF7D3FB0020FEF76C
:10269000D0FB0020FEF7CDFB0020FEF7CAFB002098
:1026A000FEF7C7FB0020FEF7C4FB0020FEF7C1FBCE
:1026B0000020FEF7BEFB0020FEF7BBFB0020FEF76C
:1026C000B8FB0020FEF7B5FB0020FEF7B2FB0020B0
:1026D000FEF7AFFB0020FEF7ACFB0020FEF7A9FBE6
:1026E0000020FEF7A6FB0020FEF7A3FB0020FEF76C
:1026F000A0FBB420FEF7A7FB8B20FEF79AFB00207F
:10270000FEF797FB9620FEF794FB0020FEF791FB67
:10271000A120FEF78EFB0020FEF78BFBB520FEF715
:1027200092FB0220FEF785FB0020FEF782FB0320D0
:10273000FEF77FFB0020FEF77CFB0420FEF779FB11
:102740000020FEF776FBB620FEF77DFB0020FEF7AB
:1027500070FB0020FEF76DFBB720FEF774FB002036
:10276000FEF767FB0020FEF764FB3F20FEF761FBEE
:102770000020FEF75EFB5E20FEF75BFB0020FEF70D
:1027800058FB6420FEF755FB0020FEF752FB8C201F
:10279000FEF74FFB0020FEF74CFBAC20FEF749FB99
:1027A0000020FEF746FBDC20FEF743FB002001E0A3
:1027B000D82C0020FEF73DFB7020FEF73AFB0020EE
:1027C000FEF737FB9020FEF734FB0020FEF731FBCD
:1027D000EB20FEF72EFB0020FEF72BFBDC20FEF7A4
:1027E00028FB0020FEF725FBB820FEF72CFB00207D
:1027F000FEF71FFB0020FEF71CFB0020FEF719FB75
:102800000020FEF716FB0020FEF713FB0020FEF76A
:1028100010FB0020FEF70DFB0020FEF70AFBBA209C
:10282000FEF711FB2420FEF704FB0020FEF701FB5E
:102830000020FEF7FEFA0020FEF7FBFAC120FEF7AB
:1028400002FB2020FEF7F5FA0020FEF7F2FA5420F2
:10285000FEF7EFFA0020FEF7ECFAFF20FEF7E9FAA8
:102860000020FEF7E6FAC220FEF7EDFA0A20FEF796
:10287000E0FA0020FEF7DDFA0420FEF7DAFA002085
:10288000FEF7D7FAC320FEF7DEFA3C20FEF7D1FAB6
:102890000020FEF7CEFA3A20FEF7CBFA0020FEF732
:1028A000C8FA3920FEF7C5FA0020FEF7C2FA372031
:1028B000FEF7BFFA0020FEF7BCFA3C20FEF7B9FA9B
:1028C0000020FEF7B6FA3620FEF7B3FA0020FEF736
:1028D000B0FA3220FEF7ADFA0020FEF7AAFA2F2058
:1028E000FEF7A7FA0020FEF7A4FA2C20FEF7A1FAC3
:1028F0000020FEF79EFA2920FEF79BFA0020FEF743
:1029000098FA2620FEF795FA0020FEF792FA242086
:10291000FEF78FFA0020FEF78CFA2420FEF789FAE2
:102920000020FEF786FA2320FEF783FA0020FEF748
:1029300080FA3C20FEF77DFA0020FEF77AFA362076
:10294000FEF777FA0020FEF774FA3220FEF771FAEC
:102950000020FEF76EFA2F20FEF76BFA0020FEF73C
:1029600068FA2C20FEF765FA0020FEF762FA2920AB
:10297000FEF75FFA0020FEF75CFA2620FEF759FA10
:102980000020FEF756FA2420FEF753FA0020FEF747
:1029900050FA2420FEF74DFA0020FEF74AFA2320D1
:1029A000FEF747FA0020FEF744FAC420FEF74BFA80
:1029B0006220FEF73EFA0020FEF73BFA0520FEF704
:1029C00038FA0020FEF735FA8420FEF732FA0020AC
:1029D000FEF72FFAF020FEF72CFA0020FEF729FA76
:1029E0001820FEF726FA0020FEF723FAA420FEF7AF
:1029F00020FA0020FEF71DFA1820FEF71AFA002030
:102A0000FEF717FA5020FEF714FA0020FEF711FA2D
:102A10000C20FEF70EFA0020FEF70BFA1720FEF747
:102A200008FA0020FEF705FA9520FEF702FA0020CA
:102A3000FEF7FFF9F320FEF7FCF90020FEF7F9F9A5
:102A4000E620FEF7F6F90020FEF7F3F9C520FEF7C1
:102A5000FAF93220FEF7EDF90020FEF7EAF94420FA
:102A6000FEF7E7F90020FEF7E4F96520FEF7E1F94B
:102A70000020FEF7DEF97620FEF7DBF90020FEF7F6
:102A8000D8F98820FEF7D5F90020FEF7D2F9C62044
:102A9000FEF7D9F92020FEF7CCF90020FEF7C9F99E
:102AA0001720FEF7C6F90020FEF7C3F90120FEF754
:102AB000C0F90020FEF7BDF9C720FEF7C4F90020D9
:102AC000FEF7B7F90020FEF7B4F90020FEF7B1F9E0
:102AD0000020FEF7AEF9C820FEF7B5F90020FEF79A
:102AE000A8F90020FEF7A5F90020FEF7A2F90020C2
:102AF000FEF79FF9C920FEF7A6F90020FEF799F925
:102B00000020FEF796F90020FEF793F90020FEF76B
:102B100090F90020FEF78DF90020FEF78AF90020D9
:102B2000FEF787F90020FEF784F90020FEF781F90F
:102B30000020FEF77EF90020FEF77BF90020FEF76B
:102B400078F90020FEF775F90020FEF772F90020F1
:102B5000FEF76FF90020FEF76CF9E020FEF773F93D
:102B60001620FEF766F90020FEF763F91C20FEF739
:102B700060F90020FEF75DF92120FEF75AF90020E8
:102B8000FEF757F93620FEF754F90020FEF751F909
:102B90004620FEF74EF90020FEF74BF95220FEF7D3
:102BA00048F90020FEF745F96420FEF742F90020BD
:102BB000FEF73FF97A20FEF73CF90020FEF739F9DD
:102BC0008B20FEF736F90020FEF733F99920FEF747
:102BD00030F90020FEF72DF9A820FEF72AF9002091
:102BE000FEF727F9B920FEF724F90020FEF721F9B6
:102BF000C420FEF71EF90020FEF71BF9CA20FEF7DD
:102C000018F90020FEF715F9D220FEF712F900207E
:102C1000FEF70FF9D920FEF70CF90020FEF709F9AD
:102C2000E020FEF706F90020FEF703F9F320FEF797
:102C300000F90020FEF7FDF8E120FEF704F9162068
:102C4000FEF7F7F80020FEF7F4F81C20FEF7F1F885
:102C50000020FEF7EEF82220FEF7EBF80020FEF74A
:102C6000E8F83620FEF7E5F80020FEF7E2F8452008
:102C7000FEF7DFF80020FEF7DCF85220FEF7D9F867
:102C80000020FEF7D6F86420FEF7D3F80020FEF708
:102C9000D0F87A20FEF7CDF80020FEF7CAF88B2096
:102CA000FEF7C7F80020FEF7C4F89920FEF7C1F838
:102CB0000020FEF7BEF8A820FEF7BBF80020FEF7C4
:102CC000B8F8B920FEF7B5F80020FEF7B2F8C42036
:102CD000FEF7AFF80020FEF7ACF8CA20FEF7A9F81F
:102CE0000020FEF7A6F8D220FEF7A3F80020FEF79A
:102CF000A0F8D820FEF79DF80020FEF79AF8E02013
:102D0000FEF797F80020FEF794F8F320FEF791F80D
:102D10000020FEF78EF8E220FEF795F80520FEF77A
:102D200088F80020FEF785F80B20FEF782F80020D7
:102D3000FEF77FF81B20FEF77CF80020FEF779F8FD
:102D40003420FEF776F80020FEF773F84420FEF7F3
:102D500070F80020FEF76DF84F20FEF76AF80020AB
:102D6000FEF767F86120FEF764F80020FEF761F8CF
:102D70007920FEF75EF80020FEF75BF88820FEF76A
:102D800058F80020FEF755F89720FEF752F800207B
:102D9000FEF74FF8A620FEF74CF80020FEF749F8A2
:102DA000B720FEF746F80020FEF743F8C220FEF7F2
:102DB00040F80020FEF73DF8C720FEF73AF8002063
:102DC000FEF737F8D120FEF734F80020FEF731F88F
:102DD000D620FEF72EF80020FEF72BF8DD20FEF7B8
:102DE00028F80020FEF725F8F320FEF722F800204F
:102DF000FEF71FF8E320FEF726F80520FEF719F886
:102E00000020FEF716F80A20FEF713F80020FEF760
:102E100010F81C20FEF70DF80020FEF70AF833200A
:102E2000FEF707F80020FEF704F84420FEF701F84B
:102E30000020FDF7FEFF5020FDF7FBFF0020FDF70F
:102E4000F8FF6220FDF7F5FF0020FDF7F2FF782084
:102E5000FDF7EFFF0020FDF7ECFF8820FDF7E9FF0D
:102E60000020FDF7E6FF9720FDF7E3FF0020FDF7C8
:102E7000E0FFA620FDF7DDFF0020FDF7DAFFB72019
:102E8000FDF7D7FF0020FDF7D4FFC220FDF7D1FFEB
:102E90000020FDF7CEFFC720FDF7CBFF0020FDF798
:102EA000C8FFD120FDF7C5FF0020FDF7C2FFD520E8
:102EB000FDF7BFFF0020FDF7BCFFDD20FDF7B9FFE8
:102EC0000020FDF7B6FFF320FDF7B3FF0020FDF76C
:102ED000B0FFE420FDF7B7FF0120FDF7AAFF0020B7
:102EE000FDF7A7FF0120FDF7A4FF0020FDF7A1FFDC
:102EF0000220FDF79EFF0020FDF79BFF2A20FDF733
:102F000098FF0020FDF795FF3C20FDF792FF002081
:102F1000FDF78FFF4B20FDF78CFF0020FDF789FFA9
:102F20005D20FDF786FF0020FDF783FF7420FDF78D
:102F300080FF0020FDF77DFF8420FDF77AFF002051
:102F4000FDF777FF9320FDF774FF0020FDF771FF79
:102F5000A220FDF76EFF0020FDF76BFFB320FDF709
:102F600068FF0020FDF765FFBE20FDF762FF00202F
:102F7000FDF75FFFC420FDF75CFF0020FDF759FF60
:102F8000CD20FDF756FF0020FDF753FFD320FDF7BE
:102F900050FF0020FDF74DFFDD20FDF74AFF002028
:102FA000FDF747FFF320FDF744FF0020FDF741FF49
:102FB000E520FDF748FF0020FDF73BFF0020FDF76F
:102FC00038FF0020FDF735FF0020FDF732FF02201B
:102FD000FDF72FFF0020FDF72CFF2920FDF729FF2B
:102FE0000020FDF726FF3C20FDF723FF0020FDF722
:102FF00020FF4B20FDF71DFF0020FDF71AFF5D208D
:10300000FDF717FF0020FDF714FF7420FDF711FFF7
:103010000020FDF70EFF8420FDF70BFF0020FDF7D9
:1030200008FF9320FDF705FF0020FDF702FFA22017
:10303000FDF7FFFE0020FDF7FCFEB320FDF7F9FED3
:103040000020FDF7F6FEBE20FDF7F3FE0020FDF7A1
:10305000F0FEC420FDF7EDFE0020FDF7EAFECD20D6
:10306000FDF7E7FE0020FDF7E4FED320FDF7E1FECB
:103070000020FDF7DEFEDC20FDF7DBFE0020FDF783
:10308000D8FEF320FDF7D5FE0020FDF7D2FEE620A6
:10309000FDF7D9FE1120FDF7CCFE0020FDF7C9FE9B
:1030A0003420FDF7C6FE0020FDF7C3FE5620FDF7D5
:1030B000C0FE0020FDF7BDFE7620FDF7BAFE002021
:1030C000FDF7B7FE7720FDF7B4FE0020FDF7B1FE57
:1030D0006620FDF7AEFE0020FDF7ABFE8820FDF771
:1030E000A8FE0020FDF7A5FE9920FDF7A2FE002016
:1030F000FDF79FFEBB20FDF79CFE0020FDF799FE2B
:103100009920FDF796FE0020FDF793FE6620FDF75F
:1031100090FE0020FDF78DFE5520FDF78AFE002071
:10312000FDF787FE5520FDF784FE0020FDF781FEA8
:103130004520FDF77EFE0020FDF77BFE4320FDF7D6
:1031400078FE0020FDF775FE4420FDF772FE00209A
:10315000FDF76FFEE720FDF776FE3220FDF769FEF2
:103160000020FDF766FE5520FDF763FE0020FDF709
:1031700060FE7620FDF75DFE0020FDF75AFE66201A
:10318000FDF757FE0020FDF754FE6720FDF751FEC6
:103190000020FDF74EFE6720FDF74BFE0020FDF7F7
:1031A00048FE8720FDF745FE0020FDF742FE9920EE
:1031B000FDF73FFE0020FDF73CFEBB20FDF739FE8A
:1031C0000020FDF736FE9920FDF733FE0020FDF7C5
:1031D00030FE7720FDF72DFE0020FDF72AFE44206B
:1031E000FDF727FE0020FDF724FE5620FDF721FE07
:1031F0000020FDF71EFE2320FDF71BFE0020FDF73B
:1032000018FE3320FDF715FE0020FDF712FE4520C5
:10321000FDF70FFE0020FDF70CFEE820FDF713FE82
:103220000020FDF706FE0020FDF703FE9920FDF7C4
:1032300000FE0020FDF7FDFD8720FDF7FAFD0020D0
:10324000FDF7F7FD8820FDF7F4FD0020FDF7F1FD07
:103250007720FDF7EEFD0020FDF7EBFD6620FDF782
:10326000E8FD0020FDF7E5FD8820FDF7E2FD0020E8
:10327000FDF7DFFDAA20FDF7DCFD0020FDF7D9FDFD
:10328000BB20FDF7D6FD0020FDF7D3FD9920FDF70B
:10329000D0FD0020FDF7CDFD6620FDF7CAFD002022
:1032A000FDF7C7FD5520FDF7C4FD0020FDF7C1FD6A
:1032B0005520FDF7BEFD0020FDF7BBFD4420FDF7C6
:1032C000B8FD0020FDF7B5FD4420FDF7B2FD00205C
:1032D000FDF7AFFD5520FDF7ACFD0020FDF7A9FD82
:1032E000E920FDF7B0FDAA20FDF7A3FD0020FDF7C2
:1032F000A0FD0020FDF79DFD0020FDF79AFD0020B8
:10330000FDF7A1FDAA20FDF794FDCF20FDF79BFD61
:103310000020FDF78EFD0020FDF78BFD0020FDF75E
:1033200088FD0020FDF785FD0020FDF782FD0020CF
:10333000FDF77FFD0020FDF77CFD0020FDF779FD06
:103340000020FDF776FD0020FDF773FD0020FDF75E
:1033500070FD0020FDF76DFD0020FDF76AFD0020E7
:10336000FDF767FD0020FDF764FD0020FDF761FD1E
:103370000020FDF75EFDF020FDF765FD0020FDF764
:1033800058FD5020FDF755FD0020FDF752FD0020AF
:10339000FDF74FFD0020FDF74CFDF320FDF753FD39
:1033A0000020FDF746FDF920FDF74DFD0620FDF755
:1033B00040FD1020FDF73DFD2920FDF73AFD0020DE
:1033C000FDF737FD3A20FDF73EFD5520FDF731FDB5
:1033D0001120FDF738FD642004F0F2FF2920FDF7ED
:1033E00032FD3520FDF72FFD0020FDF722FD512095
:1033F000FDF729FDFF20FDF71CFD5320FDF723FD00
:103400002C20FDF716FD5520FDF71DFD8220FDF750
:1034100010FD2C20FDF717FD02F0E9B8FE4880886A
:1034200045F2105188427DD155214FF47040FDF78F
:10343000F9FCAA214FF20100FDF7F4FC52214FF2F2
:103440000200FDF7EFFC08214FF20300FDF7EAFC54
:1034500001214FF20400FDF7E5FC0D214FF430404F
:10346000FDF7E0FC0D214BF20100FDF7DBFC0D2127
:103470004BF20200FDF7D6FC34214FF43640FDF745
:10348000D1FC34214BF20160FDF7CCFC34214BF22E
:103490000260FDF7C7FC0D214FF43140FDF7C2FC7F
:1034A0000D214BF20110FDF7BDFC0D214BF2021076
:1034B000FDF7B8FC34214FF43740FDF7B3FC34215D
:1034C0004BF20170FDF7AEFC34214BF20270FDF7B8
:1034D000A9FC00214FF43240FDF7A4FC00214BF27F
:1034E0000120FDF79FFC00214BF20220FDF79AFC22
:1034F00024214FF43840FDF795FC24214BF60100C0
:10350000FDF790FC24214BF60200FDF78BFC012116
:103510004FF43F40FDF786FC0F214FF43340FDF799
:1035200081FC00E0FDE30F214BF20130FDF77AFC56
:103530000F214BF20230FDF775FC34214FF4394076
:10354000FDF770FC34214BF60110FDF76BFC3421C4
:103550004BF60210FDF766FC08214FF43540FDF7ED
:1035600061FC08214BF20150FDF75CFC08214BF295
:103570000250FDF757FC03214FF44240FDF752FC87
:1035800024214FF43A40FDF74DFC24214BF6012055
:10359000FDF748FC24214BF60220FDF743FC0021F7
:1035A0004FF43C40FDF73EFC78214BF60140FDF71F
:1035B00039FC00214BF60240FDF734FC00214FF4AA
:1035C0003D40FDF72FFC78214BF60150FDF72AFC1A
:1035D00000214BF60250FDF725FC00214FF43E4040
:1035E000FDF720FC64214BF60160FDF71BFC002178
:1035F0004FF45140FDF716FC33214DF20110FDF759
:1036000011FC00214DF20210FDF70CFC34214DF2AB
:103610000310FDF707FC00214DF20410FDF702FC3A
:103620003A214DF20510FDF7FDFB00214DF2061089
:10363000FDF7F8FB4A214DF20710FDF7F3FB0021DF
:103640004DF20810FDF7EEFB5C214DF20910FDF77D
:10365000E9FB00214DF20A10FDF7E4FB81214DF258
:103660000B10FDF7DFFB00214DF20C10FDF7DAFB2C
:10367000A6214DF20D10FDF7D5FB00214DF20E10E5
:10368000FDF7D0FBE5214DF20F10FDF7CBFB01213B
:103690004DF21010FDF7C6FB13214DF21110FDF78E
:1036A000C1FB01214DF21210FDF7BCFB54214DF27C
:1036B0001310FDF7B7FB01214DF21410FDF7B2FB1B
:1036C00082214DF21510FDF7ADFB01214DF21610D0
:1036D000FDF7A8FBCA214DF21710FDF7A3FB02214D
:1036E0004DF21810FDF79EFB00214DF21910FDF769
:1036F00099FB02214DF21A10FDF794FB01214DF2C6
:103700001B10FDF78FFB02214DF21C10FDF78AFB09
:1037100034214DF21D10FDF785FB02214DF21E10E4
:10372000FDF780FB67214DF21F10FDF77BFB0221A7
:103730004DF22010FDF776FB84214DF22110FDF7AC
:1037400071FB02214DF22210FDF76CFBA4214DF21A
:103750002310FDF767FB02214DF22410FDF762FBF9
:10376000B7214DF22510FDF75DFB02214DF2261029
:10377000FDF758FBCF214DF22710FDF753FB022137
:103780004DF22810FDF74EFBDE214DF22910FDF71A
:1037900049FB02214DF22A10FDF744FBF2214DF2C4
:1037A0002B10FDF73FFB02214DF22C10FDF73AFBE9
:1037B000FE214DF22D10FDF735FB03214DF22E10A9
:1037C000FDF730FB10214DF22F10FDF72BFB0321ED
:1037D0004DF23010FDF726FB33214DF23110FDF78D
:1037E00021FB03214DF23210FDF71CFB6D214DF240
:1037F0003310FDF717FB00214FF45240FDF712FB89
:1038000033214DF20120FDF70DFB00214DF2022086
:10381000FDF708FB342101E0D82C00204DF20320F5
:10382000FDF700FB00214DF20420FDF7FBFA3A21E1
:103830004DF20520FDF7F6FA00214DF20620FDF7C6
:10384000F1FA4A214DF20720FDF7ECFA00214DF282
:103850000820FDF7E7FA5C214DF20920FDF7E2FAB6
:1038600000214DF20A20FDF7DDFA81214DF20B20F7
:10387000FDF7D8FA00214DF20C20FDF7D3FAA6216E
:103880004DF20D20FDF7CEFA00214DF20E20FDF78E
:10389000C9FAE5214DF20F20FDF7C4FA01214DF2DE
:1038A0001020FDF7BFFA13214DF21120FDF7BAFAEF
:1038B00001214DF21220FDF7B5FA54214DF21320EB
:1038C000FDF7B0FA01214DF21420FDF7ABFA822189
:1038D0004DF21520FDF7A6FA01214DF21620FDF755
:1038E000A1FACA214DF21720FDF79CFA02214DF2F0
:1038F0001820FDF797FA00214DF21920FDF792FAF2
:1039000002214DF21A20FDF78DFA01214DF21B2004
:10391000FDF788FA02214DF21C20FDF783FA3421CD
:103920004DF21D20FDF77EFA02214DF21E20FDF71B
:1039300079FA67214DF21F20FDF774FA02214DF24A
:103940002020FDF76FFA84214DF22120FDF76AFA5D
:1039500002214DF22220FDF765FAA4214DF2232029
:10396000FDF760FA02214DF22420FDF75BFAB72142
:103970004DF22520FDF756FA02214DF22620FDF7E3
:1039800051FACF214DF22720FDF74CFA02214DF2DA
:103990002820FDF747FADE214DF22920FDF742FAF3
:1039A00002214DF22A20FDF73DFAF2214DF22B20A3
:1039B000FDF738FA02214DF22C20FDF733FAFE21F3
:1039C0004DF22D20FDF72EFA03214DF22E20FDF7AA
:1039D00029FA10214DF22F20FDF724FA03214DF290
:1039E0003020FDF71FFA33214DF23120FDF71AFA8E
:1039F00003214DF23220FDF715FA6D214DF23320EF
:103A0000FDF710FA00214FF45340FDF70BFA332174
:103A10004DF20130FDF706FA00214DF20230FDF7BC
:103A200001FA34214DF20330FDF7FCF900214DF28B
:103A30000430FDF7F7F93A214DF20530FDF7F2F9C0
:103A400000214DF20630FDF7EDF94A214DF2073025
:103A5000FDF7E8F900214DF20830FDF7E3F95C21AC
:103A60004DF20930FDF7DEF900214DF20A30FDF785
:103A7000D9F981214DF20B30FDF7D4F900214DF237
:103A80000C30FDF7CFF9A6214DF20D30FDF7CAF944
:103A900000214DF20E30FDF7C5F9E5214DF20F3052
:103AA000FDF7C0F901214DF21030FDF7BBF91321EC
:103AB0004DF21130FDF7B6F901214DF21230FDF74C
:103AC000B1F954214DF21330FDF7ACF901214DF25B
:103AD0001430FDF7A7F982214DF21530FDF7A2F958
:103AE00001214DF21630FDF79DF9CA214DF2173034
:103AF000FDF798F902214DF21830FDF793F90021F6
:103B00004DF21930FDF78EF902214DF21A30FDF712
:103B100089F901214DF21B30FDF784F902214DF2A4
:103B20001C30FDF77FF934214DF21D30FDF77AF995
:103B300002214DF21E30FDF775F967214DF21F305D
:103B4000FDF770F902214DF22030FDF76BF9842169
:103B50004DF22130FDF766F902214DF22230FDF7DA
:103B600061F9A4214DF22330FDF75CF902214DF2F9
:103B70002430FDF757F9B7214DF22530FDF752F902
:103B800002214DF22630FDF74DF9CF214DF22730BD
:103B9000FDF748F902214DF22830FDF743F9DE2107
:103BA0004DF22930FDF73EF902214DF22A30FDF7A2
:103BB00039F9F2214DF22B30FDF734F902214DF2A3
:103BC0002C30FDF72FF9FE214DF22D30FDF72AF9AB
:103BD00003214DF22E30FDF725F910214DF22F3043
:103BE000FDF720F903214DF23030FDF71BF93321A9
:103BF0004DF23130FDF716F903214DF23230FDF769
:103C000011F96D214DF23330FDF70CF900214FF41D
:103C10005440FDF707F933214DF20140FDF702F959
:103C200000214DF20240FDF7FDF834214DF2034032
:103C3000FDF7F8F800214DF20440FDF7F3F83A21C2
:103C40004DF20540FDF7EEF800214DF20640FDF77C
:103C5000E9F84A214DF20740FDF7E4F800214DF262
:103C60000840FDF7DFF85C214DF20940FDF7DAF876
:103C700000214DF20A40FDF7D5F881214DF20B40AD
:103C8000FDF7D0F800214DF20C40FDF7CBF8A6214E
:103C90004DF20D40FDF7C6F800214DF20E40FDF744
:103CA000C1F8E5214DF20F40FDF7BCF801214DF2BE
:103CB0001040FDF7B7F813214DF21140FDF7B2F8AF
:103CC00001214DF21240FDF7ADF854214DF21340A1
:103CD000FDF7A8F801214DF21440FDF7A3F8822169
:103CE0004DF21540FDF79EF801214DF21640FDF70B
:103CF00099F8CA214DF21740FDF794F802214DF2D0
:103D00001840FDF78FF800214DF21940FDF78AF8B1
:103D100002214DF21A40FDF785F801214DF21B40BA
:103D200000E006E3FDF77EF802214DF21C40FDF7AE
:103D300079F834214DF21D40FDF774F802214DF25F
:103D40001E40FDF76FF867214DF21F40FDF76AF83E
:103D500002214DF22040FDF765F884214DF221400B
:103D6000FDF760F802214DF22240FDF75BF8A42137
:103D70004DF22340FDF756F802214DF22440FDF7A5
:103D800051F8B7214DF22540FDF74CF802214DF2D4
:103D90002640FDF747F8CF214DF22740FDF742F8C6
:103DA00002214DF22840FDF73DF8DE214DF2294079
:103DB000FDF738F802214DF22A40FDF733F8F221E1
:103DC0004DF22B40FDF72EF802214DF22C40FDF76D
:103DD00029F8FE214DF22D40FDF724F803214DF284
:103DE0002E40FDF71FF810214DF22F40FDF71AF875
:103DF00003214DF23040FDF715F833214DF23140EB
:103E0000FDF710F803214DF23240FDF70BF86D215C
:103E10004DF23340FDF706F800214FF45540FDF711
:103E200001F833214DF20150FCF7FCFF00214DF267
:103E30000250FCF7F7FF34214DF20350FCF7F2FF7C
:103E400000214DF20450FCF7EDFF3A214DF20550F0
:103E5000FCF7E8FF00214DF20650FCF7E3FF4A2192
:103E60004DF20750FCF7DEFF00214DF20850FCF741
:103E7000D9FF5C214DF20950FCF7D4FF00214DF22F
:103E80000A50FCF7CFFF81214DF20B50FCF7CAFF1F
:103E900000214DF20C50FCF7C5FFA6214DF20D504C
:103EA000FCF7C0FF00214DF20E50FCF7BBFFE521EF
:103EB0004DF20F50FCF7B6FF01214DF21050FCF708
:103EC000B1FF13214DF21150FCF7ACFF01214DF26F
:103ED0001250FCF7A7FF54214DF21350FCF7A2FF3C
:103EE00001214DF21450FCF79DFF82214DF2155037
:103EF000FCF798FF01214DF21650FCF793FFCA2101
:103F00004DF21750FCF78EFF02214DF21850FCF7CE
:103F100089FF00214DF21950FCF784FF02214DF278
:103F20001A50FCF77FFF01214DF21B50FCF77AFF7E
:103F300002214DF21C50FCF775FF34214DF21D504B
:103F4000FCF770FF02214DF21E50FCF76BFF67215A
:103F50004DF21F50FCF766FF02214DF22050FCF796
:103F600061FF84214DF22150FCF75CFF02214DF2EC
:103F70002250FCF757FFA4214DF22350FCF752FFCB
:103F800002214DF22450FCF74DFFB7214DF2255090
:103F9000FCF748FF02214DF22650FCF743FFCF21EA
:103FA0004DF22750FCF73EFF02214DF22850FCF75E
:103FB00039FFDE214DF22950FCF734FF02214DF28A
:103FC0002A50FCF72FFFF2214DF22B50FCF72AFF6D
:103FD00002214DF22C50FCF725FFFE214DF22D5011
:103FE000FCF720FF03214DF22E50FCF71BFF1021A0
:103FF0004DF22F50FCF716FF03214DF23050FCF725
:1040000011FF33214DF23150FCF70CFF03214DF22B
:104010003250FCF707FF6D214DF23350FCF702FFE1
:1040200000214FF45640FCF7FDFE33214DF20160B4
:10403000FCF7F8FE00214DF20260FCF7F3FE34219C
:104040004DF20360FCF7EEFE00214DF20460FCF738
:10405000E9FE3A214DF20560FCF7E4FE00214DF245
:104060000660FCF7DFFE4A214DF20760FCF7DAFE3E
:1040700000214DF20860FCF7D5FE5C214DF209608D
:10408000FCF7D0FE00214DF20A60FCF7CBFE812147
:104090004DF20B60FCF7C6FE00214DF20C60FCF700
:1040A000C1FEA6214DF20D60FCF7BCFE00214DF2D1
:1040B0000E60FCF7B7FEE5214DF20F60FCF7B2FE93
:1040C00001214DF21060FCF7ADFE13214DF211609D
:1040D000FCF7A8FE01214DF21260FCF7A3FE54216B
:1040E0004DF21360FCF79EFE01214DF21460FCF7C7
:1040F00099FE82214DF21560FCF794FE01214DF2EC
:104100001660FCF78FFECA214DF21760FCF78AFE9D
:1041100002214DF21860FCF785FE00214DF2196076
:10412000FCF780FE02214DF21A60FCF77BFE0121B4
:104130004DF21B60FCF776FE02214DF21C60FCF78D
:1041400071FE34214DF21D60FCF76CFE02214DF230
:104150001E60FCF767FE67214DF21F60FCF762FEF0
:1041600002214DF22060FCF75DFE84214DF22160BA
:10417000FCF758FE02214DF22260FCF753FEA42109
:104180004DF22360FCF74EFE02214DF22460FCF755
:1041900049FEB7214DF22560FCF744FE02214DF2A5
:1041A0002660FCF73FFECF214DF22760FCF73AFE78
:1041B00002214DF22860FCF735FEDE214DF2296028
:1041C000FCF730FE02214DF22A60FCF72BFEF221B3
:1041D0004DF22B60FCF726FE02214DF22C60FCF71D
:1041E00021FEFE214DF22D60FCF71CFE03214DF255
:1041F0002E60FCF717FE10214DF22F60FCF712FE27
:1042000003214DF23060FCF70DFE33214DF2316099
:10421000FCF708FE03214DF23260FCF703FE6D212E
:104220004DF23360FCF7FEFD55214FF47040FCF772
:10423000F9FDAA214FF20100FCF7F4FD52214FF2E3
:104240000200FCF7EFFD08214FF20300FCF7EAFD46
:1042500000214FF20400FCF7E5FDCC214FF4314082
:10426000FCF7E0FD00214BF20110FCF7DBFD05211E
:104270004FF43640FCF7D6FD70214FF43740FCF781
:10428000D1FD70214BF20170FCF7CCFD01214FF400
:104290003840FCF7C7FD03214BF60100FCF7C2FDD7
:1042A00003214BF60200FCF7BDFD03214BF6030092
:1042B000FCF7B8FD02214FF43C40FCF7B3FD0021B0
:1042C0004BF60140FCF7AEFD00214BF60240FCF737
:1042D000A9FDD0214FF44940FCF7A4FD02214CF682
:1042E0000110FCF79FFD50214CF60210FCF79AFDDF
:1042F00050214CF60310FCF795FD50214CF60410AC
:10430000FCF790FD00214FF45450FCF78BFD552134
:104310004FF46850FCF786FD4FF48850FCF793FD8E
:10432000782004F023F84FF42450FCF78CFD01F0C2
:104330005EB9FE48808849F2253188427ED147F631
:10434000F001E520FCF76EFD4FF480710120FCF7D1
:1043500069FD4FF4E0610220FCF764FD41F2300199
:104360000320FCF75FFD00210420FCF75BFD40F219
:1043700002210820FCF756FD00210920FCF752FD20
:1043800000210A20FCF74EFD00210C20FCF74AFD1D
:1043900000210D20FCF746FD00210F20FCF742FD17
:1043A00000211020FCF73EFD07211120FCF73AFD0B
:1043B00000211220FCF736FD00211320FCF732FD0E
:1043C00000210720FCF72EFD41F290611020FCF740
:1043D00029FD40F227211120FCF724FD9D21122008
:1043E000FCF720FD4FF4C8511320FCF71BFD2521DD
:1043F0002920FCF717FD0D212B20FCF713FD0721C9
:104400003020FCF70FFD40F203313120FCF70AFDAC
:1044100003213220FCF706FD40F206213520FCF78F
:1044200001FD08213620FCF7FDFC40F20641372053
:10443000FCF7F8FC4FF44171382000E057E0FCF73E
:10444000F1FC07213920FCF7EDFC40F202613C2031
:10445000FCF7E8FC08213D20FCF7E4FC002150209B
:10446000FCF7E0FCEF215120FCF7DCFC002152209E
:10447000FCF7D8FC40F23F115320FCF7D3FC4FF47B
:1044800027416020FCF7CEFC01216120FCF7CAFC2B
:1044900000216A20FCF7C6FC00218020FCF7C2FC4A
:1044A00000218120FCF7BEFC00218220FCF7BAFC31
:1044B00000218320FCF7B6FC00218420FCF7B2FC2D
:1044C00000218520FCF7AEFC10219020FCF7AAFC0F
:1044D0004FF4C0619220FCF7A5FC40F23311072095
:1044E000FCF7A0FC22210020FCF79CFC1FE78F4872
:1044F000808849F2283188427ED141F28F01EC2038
:10450000FCF790FC41F23421EF20FCF78BFC4FF4D8
:1045100080710120FCF786FC4FF4E0610220FCF77B
:1045200081FC41F230010320FCF77CFC00210420D7
:10453000FCF778FC40F202210820FCF773FC002114
:104540000920FCF76FFC00210A20FCF76BFC01211D
:104550000C20FCF767FC00210D20FCF763FC002118
:104560000F20FCF75FFC00211020FCF75BFC07210B
:104570001120FCF757FC00211220FCF753FC00210E
:104580001320FCF74FFC01210720FCF74BFC3220E5
:1045900003F016FF41F290411020FCF743FC40F27B
:1045A00027211120FCF73EFC322003F009FF8A216D
:1045B0001220FCF737FC322003F002FF4FF4D051F9
:1045C0001320FCF72FFC06212920FCF72BFC0D21E2
:1045D0002B20FCF727FC322003F0F2FE00212020E4
:1045E000FCF720FC00212120FCF71CFC322003F00A
:1045F000E7FE0021302000E074E0FCF713FC40F2FD
:1046000004613120FCF70EFC40F205313220FCF74A
:1046100009FC00213520FCF705FC40F60941362055
:10462000FCF700FC4FF401713720FCF7FBFB40F274
:1046300001313820FCF7F6FB40F207713920FCF716
:10464000F1FB00213C20FCF7EDFB40F60A213D2068
:10465000FCF7E8FB322003F0B3FE00215020FCF70A
:10466000E1FBEF215120FCF7DDFB00215220FCF79C
:10467000D9FB40F23F115320FCF7D4FB4FF4274104
:104680006020FCF7CFFB01216120FCF7CBFB002170
:104690006A20FCF7C7FB00218020FCF7C3FB002148
:1046A0008120FCF7BFFB00218220FCF7BBFB00212F
:1046B0008320FCF7B7FB00218420FCF7B3FB00212B
:1046C0008520FCF7AFFB10219020FCF7ABFB4FF4EB
:1046D000C0619220FCF7A6FB40F233110720FCF7E3
:1046E000A1FB24E61148808849F2203188427DD11F
:1046F00000210846FCF796FB4FF480710120FCF77F
:1047000091FB4FF4E0610220FCF78CFB41F2300199
:104710000320FCF787FB00210420FCF783FB40F219
:1047200002210820FCF77EFB002101E0D82C0020AC
:104730000920FCF777FB00210A20FCF773FB01211D
:104740000C20FCF76FFB00210D20FCF76BFB002118
:104750000F20FCF767FB322003F032FE40F201111C
:104760000720FCF75FFB322003F02AFE4FF486514E
:104770001020FCF757FB07211120FCF753FB4FF4E7
:1047800088711220FCF74EFB4FF430611320FCF7C8
:1047900049FB00212920FCF745FB44F210012B20A6
:1047A000FCF740FB00215020FCF73CFBEF2151209F
:1047B000FCF738FB00215220FCF734FB40F23F119C
:1047C0005320FCF72FFB4FF41C516020FCF72AFB11
:1047D00001216120FCF726FB00216A20FCF722FB67
:1047E00000218020FCF71EFB002100E031E0812049
:1047F000FCF718FB00218220FCF714FB002183202A
:10480000FCF710FB00218420FCF70CFB0021852025
:10481000FCF708FB10219020FCF704FB00219220FC
:10482000FCF700FB01219320FCF7FCFA4FF48871A0
:104830009520FCF7F7FA00219720FCF7F3FA002106
:104840009820FCF7EFFA40F273110720FCF7EAFA20
:104850006DE5FE48808849F2313188427DD141F2D0
:104860001401E720FCF7DEFA4FF480710120FCF719
:10487000D9FA4FF400710220FCF7D4FA41F2380162
:104880000320FCF7CFFA40F202210820FCF7CAFA15
:1048900000210920FCF7C6FA00210A20FCF7C2FA21
:1048A00000210C20FCF7BEFA00210D20FCF7BAFA1B
:1048B00000210F20FCF7B6FA00211020FCF7B2FA15
:1048C00007211120FCF7AEFA00211220FCF7AAFA0A
:1048D00000211320FCF7A6FAC82003F071FD41F275
:1048E00090611020FCF79EFA40F227211120FCF77E
:1048F00099FA322003F064FD0C211220FCF792FAA1
:10490000322003F05DFD4FF400611320FCF78AFABA
:1049100011212920FCF786FA0B212B20FCF782FAC3
:10492000322003F04DFD00212020FCF77BFA40F2FD
:104930003F112120FCF776FA00213020FCF772FAB3
:104940004FF483713120FCF76DFA00213220FCF71F
:1049500069FA4FF40171352000E064E0FCF762FA77
:1049600041F20A613620FCF75DFA40F20771372008
:10497000FCF758FA4FF483713820FCF753FA40F2F1
:1049800007713920FCF74EFA40F202413C20FCF757
:1049900049FA40F60F413D20FCF744FA002150202F
:1049A000FCF740FAEF215120FCF73CFA002152209D
:1049B000FCF738FA40F23F115320FCF733FA4FF47A
:1049C0001C516020FCF72EFA01216120FCF72AFA25
:1049D00000216A20FCF726FA00218020FCF722FA49
:1049E00000218120FCF71EFA00218220FCF71AFA30
:1049F00000218320FCF716FA00218420FCF712FA2C
:104A000000218520FCF70EFA10219020FCF70AFA0D
:104A10004FF4C0619220FCF705FA40F233110720F1
:104A2000FCF700FA83E48948808845F2084188420F
:104A30007ED14FF480710120FCF7F4F94FF4E0616E
:104A40000220FCF7EFF941F230010320FCF7EAF90C
:104A500000210420FCF7E6F940F207210820FCF7CA
:104A6000E1F900210920FCF7DDF900210A20FCF71B
:104A7000D9F900210C20FCF7D5F900210D20FCF715
:104A8000D1F900210F20FCF7CDF9142003F098FC98
:104A900041F2B0611020FCF7C5F901211120FCF7AB
:104AA000C1F901211720FCF7BDF94FF49C711220C8
:104AB000FCF7B8F94FF400611320FCF7B3F90921B2
:104AC0002920FCF7AFF909212A20FCF7ABF90021D6
:104AD000A420FCF7A7F900215020FCF7A3F9EF214F
:104AE0005120FCF79FF900215220FCF79BF940F27E
:104AF0003F115320FCF796F94FF41C516020FCF74E
:104B000091F901216120FCF78DF900216A20FCF761
:104B100089F900218020FCF785F900218120FCF72C
:104B200081F900218220FCF77DF90021832000E03B
:104B300023E0FCF777F900218420FCF773F90021CA
:104B40008520FCF76FF913219020FCF76BF9002109
:104B50009220FCF767F903219320FCF763F94FF4E7
:104B600088719520FCF75EF940F273110720FCF77D
:104B700059F9322003F024FCB8E43448808841F22B
:104B8000055188427ED100210720FCF74BF93220E5
:104B900003F016FC4FF48E711220FCF743F901214B
:104BA000A420FCF73FF90F210820FCF73BF908216E
:104BB0000A20FCF737F908210D20FCF733F940F201
:104BC00007713020FCF72EF907213120FCF72AF974
:104BD00040F203613220FCF725F94FF4E061332005
:104BE000FCF720F940F202213420FCF71BF90221E6
:104BF0003520FCF717F941F60F713620FCF712F952
:104C000040F207713720FCF70DF900213820FCF73E
:104C100009F900213920FCF705F940F207713A2023
:104C2000FCF700F900213B20FCF7FCF807213C20B1
:104C3000FCF7F8F800213D20FCF7F4F8322003F0EF
:104C4000BFFB01210720FCF7EDF801E0D82C002084
:104C500001211720FCF7E6F8322003F0B1FB4FF4F6
:104C6000BD511020FCF7DEF840F217211120FCF7AF
:104C7000D9F84FF48F711220FCF7D4F84FF470611B
:104C8000132000E097E0FCF7CDF800212A20FCF784
:104C9000C9F80A212920FCF7C5F84FF49F711220AA
:104CA000FCF7C0F800215020FCF7BCF8EF215120A0
:104CB000FCF7B8F800215220FCF7B4F840F23F119D
:104CC0005320FCF7AFF84FF41C516020FCF7AAF812
:104CD00001216120FCF7A6F800216A20FCF7A2F868
:104CE00000218020FCF79EF800218120FCF79AF833
:104CF00000218220FCF796F800218320FCF792F82F
:104D000000218420FCF78EF800218520FCF78AF82A
:104D100013219020FCF786F84FF440719220FCF7A5
:104D200081F805219320FCF77DF800219520FCF700
:104D300079F800219720FCF775F800219820FCF7FE
:104D400071F84FF480710120FCF76CF84FF4E061CA
:104D50000220FCF767F841F238010320FCF762F803
:104D600000210420FCF75EF800210C20FCF75AF823
:104D700000210F20FCF756F800212020FCF752F804
:104D800000212120FCF74EF821210720FCF74AF8EA
:104D9000142003F015FB61210720FCF743F81420D1
:104DA00003F00EFB40F273110720FCF73BF81420D0
:104DB00003F006FB95E4FE4880884BF205518842DB
:104DC0007ED100210846FCF72DF800210846FCF7AB
:104DD00029F800210846FCF725F800210846FCF7D1
:104DE00021F80121A420FCF71DF8142003F0E8FAB3
:104DF0004FF41C516020FCF715F840F20221082006
:104E0000FCF710F84FF405713020FCF70BF843F273
:104E100015713120FCF706F840F204613220FCF7EE
:104E200001F840F616613320FBF7FCFF42F2112136
:104E30003420FBF7F7FF4FF4A8513520FBF7F2FFC2
:104E400048F207513620FBF7EDFF41F207413720CA
:104E5000FBF7E8FF41F203413820FBF7E3FF202195
:104E60003920FBF7DFFF1A219020FBF7DBFF002141
:104E70001020FBF7D7FF07211120FBF7D3FF0021FC
:104E80001220FBF7CFFF00211320FBF7CBFF1420EC
:104E900003F096FA4FF4E6611020FBF7C3FF40F2EF
:104EA00037111120FBF7BEFF142003F089FA4FF4ED
:104EB000DC711220FBF7B6FF142003F081FA00E04A
:104EC00083E04FF470611320FBF7ACFF80212A20B0
:104ED000FBF7A8FF48212920FBF7A4FF142003F0CB
:104EE0006FFA4FF480710120FBF79CFF4FF4E061F3
:104EF0000220FBF797FF41F238010320FBF792FFF6
:104F000040F202210820FBF78DFF00210A20FBF769
:104F100089FF00210C20FBF785FF00210D20FBF706
:104F200081FF30210E20FBF77DFF00215020FBF791
:104F300079FFEF215120FBF775FF00215220FBF78D
:104F400071FF40F23F115320FBF76CFF4FF41C51EF
:104F50006020FBF767FF01216120FBF763FF002161
:104F60006A20FBF75FFF11219020FBF75BFF4FF4F6
:104F7000C0619220FBF756FF40F202419320FBF7FD
:104F800051FF02219420FBF74DFF142003F018FA83
:104F900001210720FBF746FF142003F011FA6121DD
:104FA0000720FBF73FFF40F273110720FBF73AFFA2
:104FB00000212020FBF736FF00212120FBF732FFE4
:104FC00022210020FBF72EFF11E3794880884CF264
:104FD000055188427ED100210846FBF723FF0021BE
:104FE0000846FBF71FFF142003F0EAF900210846EA
:104FF000FBF718FF00210846FBF714FF00210846C5
:10500000FBF710FF00210846FBF70CFF0121A4204D
:10501000FBF708FF142003F0D3F94FF41C51602074
:10502000FBF700FF40F606010820FBF7FBFE40F20D
:1050300003713020FBF7F6FE01213120FBF7F2FE71
:1050400004213220FBF7EEFE4FF481713320FBF791
:10505000E9FE4FF440713420FBF7E4FE40F2031107
:105060003520FBF7DFFE1F213620FBF7DBFE40F289
:1050700003713720FBF7D6FE01213820FBF7D2FE63
:1050800004213920FBF7CEFE15219020FBF7CAFE44
:105090004FF482611020FBF7C5FE40F2472111203A
:1050A000FBF7C0FE4FF4DE711220FBF7BBFE4FF49E
:1050B00060611320FBF7B6FE782003F081F94FF40E
:1050C00080710120FBF7AEFE4FF400710220FBF768
:1050D000A9FE00E050E041F230010320FBF7A2FE00
:1050E00008210A20FBF79EFE00210C20FBF79AFE08
:1050F00020210E20FBF796FE00210F20FBF792FEE9
:1051000000212020FBF78EFE00212120FBF78AFEE4
:105110003D212A20FBF786FE142003F051F92D21B2
:105120002920FBF77FFE00215020FBF77BFE4DF28C
:10513000EF015120FBF776FE00215220FBF772FEB3
:1051400040F23F115320FBF76DFE00216120FBF779
:1051500069FE00216A20FBF765FE4FF44071922042
:10516000FBF760FE05219320FBF75CFE4FF4807196
:105170000720FBF757FE3AE20D48808844F2315190
:1051800088427CD101210020FBF74CFE0A2003F06D
:1051900017F941F228611020FBF744FE0E2112207E
:1051A000FBF740FE40F639211320FBF73BFE01E000
:1051B000D82C00200A2003F003F940211120FBF72E
:1051C00031FE50211520FBF72DFE0A2003F0F8F8E0
:1051D0001E211220FBF726FE0A2003F0F1F84FF4FF
:1051E000B1511020FBF71EFE42F639211320FBF7C8
:1051F00019FE0A2003F0E4F84FF480710120FBF758
:1052000011FE4FF440710220FBF70CFE41F2380111
:105210000320FBF707FE40F202210820FBF702FE05
:1052200008210A20FBF7FEFD00213020FBF7FAFDE4
:1052300040F202413120FBF7F5FD4FF4837132203B
:10524000FBF7F0FD40F203513320FBF7EBFD4FF489
:1052500082713420FBF7E6FD40F201313520FBF787
:10526000E1FD40F207713620FBF7DCFD40F205312D
:105270003720FBF7D7FD4FF40271382000E040E003
:10528000FBF7D0FD40F60B713920FBF7CBFD022177
:105290004120FBF7C7FD4FF41C516020FBF7C2FD16
:1052A00001216120FBF7BEFD4FF404719020FBF754
:1052B000B9FD4FF485719220FBF7B4FD04219320D2
:1052C000FBF7B0FD4FF48071A020FBF7ABFD01218F
:1052D0000720FBF7A7FD21210720FBF7A3FD2321D2
:1052E0000720FBF79FFD33210720FBF79BFD40F2D2
:1052F00033110720FBF796FD0021A020FBF792FD5C
:1053000075E1F848808844F2355188427ED13021D9
:105310001520FBF787FD10219A20FBF783FD202144
:105320001120FBF77FFD43F228411020FBF77AFDA7
:1053300002211220FBF776FD41F238011320FBF722
:1053400071FD282003F03CF812210846FBF76AFDA6
:10535000282003F035F843F220411020FBF762FDCE
:1053600043F238011320FBF75DFD462003F028F8D7
:1053700000213020FBF756FD40F202413120FBF7BF
:1053800051FD40F207313220FBF74CFD4FF44171E3
:105390003320FBF747FD04213420FBF743FD40F2A7
:1053A00001413520FBF73EFD40F207713620FBF747
:1053B00039FD40F205313720FBF734FD4FF4C2616F
:1053C0003820FBF72FFD4FF4C2613920FBF72AFD8F
:1053D0004FF480710120FBF725FD4FF4407102204E
:1053E000FBF720FD41F230010320FBF71BFD40F6E7
:1053F00008010820FBF716FD08210A20FBF712FD23
:105400004FF41C516020FBF70DFD00E031E001215D
:105410006120FBF707FD4FF49F719020FBF702FD21
:105420004FF480719220FBF7FDFC4FF480719320C4
:10543000FBF7F8FC4FF44051A020FBF7F3FC1021E0
:10544000A320FBF7EFFC01210720FBF7EBFC212158
:105450000720FBF7E7FC23210720FBF7E3FC3321C0
:105460000720FBF7DFFC40F233110720FBF7DAFCE3
:10547000BDE09C48808841F663118842F8D1E22063
:10548000FBF7E1FC1D20FBF7D4FC0220FBF7D1FC6D
:105490000420FBF7CEFC642002F068FFE020FBF75D
:1054A000D2FC0120FBF7C5FC0A2002F089FFE020B6
:1054B000FBF7C9FC0320FBF7BCFC0C2002F080FFCB
:1054C0000120FBF7C0FC0A2002F07AFFE620FBF780
:1054D000BAFC2F20FBF7ADFCFF20FBF7AAFCFF2056
:1054E000FBF7A7FCB020FBF7AEFC2020FBF7A1FCEC
:1054F0000020FBF79EFC0320FBF79BFC40F21F30D3
:10550000FBF797FC0120FBF794FC40F2DF10FBF760
:1055100090FC0020FBF78DFCB420FBF794FC0420EA
:10552000FBF787FC40F21F40FBF783FC0020FBF7F2
:1055300080FC2E20FBF77DFC0020FBF77AFC00208E
:10554000FBF777FC0020FBF774FC0020FBF771FCF5
:10555000B620FBF778FC0220FBF76BFC4FF40370DE
:10556000FBF767FC0020FBF764FC1720FBF761FCEE
:105570001520FBF75EFC0020FBF75BFC0020FBF72F
:1055800058FCF020FBF75FFC0320FBF752FC2920BE
:10559000FBF759FCD020FBF756FC0020FBF749FC39
:1055A000BE20FBF750FC0520FBF743FCFE20FBF779
:1055B00040FC0120FBF73DFC0020FBF73AFC0020FB
:1055C000FBF737FC0020FBF734FCB820FBF73BFC73
:1055D0000320FBF72EFC0120FBF72BFCBA20FBF786
:1055E00032FC0120FBF725FC6420FCF709F90020C0
:1055F000FCF732F901203C4908604FF6FF70FCF7D8
:105600001CFB21B000BD2DE9FC4F05460E46174698
:105610009846DDF82C90002001903248808846F6AC
:105620000401884229D12F488079012825D1AB4631
:1056300035462C480088C01B401E86B24746294884
:105640000088A0EB0B00401E1FFA80F800202549BF
:1056500088712A2048812B20888143463A4631466A
:105660002846CDF80090FFF7CEFF01201D49887134
:105670002B2048812A2088811DE0781B401C80B2A5
:105680000190344615E021462846FBF747FDFBF71D
:1056900028FD4FF0000A07E04FF0D840A0F88090B6
:1056A0000AF101001FFA80FA01988245F4DB601CC0
:1056B00084B24445E7DDBDE8FC8F2DE9F84F07468D
:1056C0000D4690469946DDF828B0A8EB0700401C2F
:1056D0001FFA80FAA9EB0500401C80B2009000245C
:1056E00019E00000D82C0020BC824042281981B269
:1056F0003846FBF713FDFBF7F4FC002607E004FB3C
:105700000A603BF81000F8490880701C86B25645C4
:10571000F5DB601C84B200988442E7DBBDE8F88FBB
:105720002DE9FF4F84B081468A4600200390029005
:105730000698A0EB09050798A0EB0A06CDF804909F
:10574000CDF800A0002D01DD012705E00DB90027EF
:1057500002E04FF0FF376D42002E02DD4FF00108EE
:1057600006E016B94FF0000802E04FF0FF3876422D
:10577000B54201DD2C4600E034464FF0000B21E03D
:10578000009A91B2019A90B2FCF72CF80398284441
:1057900003900298304402900398A04205DD0398DC
:1057A000001B03900198384401900298A04205DD47
:1057B0000298001B02900098404400900BF10100F9
:1057C0001FFA80FB601C8345DADD08B0BDE8F08F6E
:1057D000F0B504460D4616461F462B46324629466E
:1057E0002046FFF79DFF3B46224629462046FFF70D
:1057F00097FF3B46324639462046FFF791FF3B462E
:10580000324629463046FFF78BFFF0BD2DE9F043C5
:1058100006460F469046002445460320A0EB480963
:105820003CE07A1B91B2321990B2FBF7DBFF3A1BD6
:1058300091B2721990B2FBF7D5FF3A1991B2721971
:1058400090B2FBF7CFFF7A1991B2321990B2FBF701
:10585000C9FF7A1991B2321B90B2FBF7C3FF3A1914
:1058600091B2721B90B2FBF7BDFF7A1B91B2321B53
:1058700090B2FBF7B7FF3A1B91B2721B90B2FBF7E5
:10588000B1FF641CB9F1000F03DAA000801D814450
:1058900004E0601B80000A3081446D1EAC42C0DD14
:1058A000BDE8F0832DE9F84F80460E4617461C46AA
:1058B000B3462046E31704EB5373DB1021464FEA4F
:1058C000E47C04EB5C7C4FEAEC0CA4EBCC0CBCF16C
:1058D000000F02D04FF0010C01E04FF0000C6344C8
:1058E000224604EBD27C4FEA6C0C03FB0CF3DBB2D8
:1058F0000093A7F12000C7B2002556E00C2C07D179
:1059000007EB4700794901EB800010F8059013E0A0
:10591000102C05D1764800EB071010F805900BE02D
:10592000182C07D107EBC700724901EB800010F873
:10593000059001E0BDE8F88F4FF0000A2FE009F074
:10594000800030B16C48028831464046FBF784FA4B
:1059500007E00A9828B96948028831464046FBF7B3
:105960007BFA4FEA49604FEA1069701C86B26448BE
:105970004088B04200DCDDE7A6EB0B00A0420AD174
:105980005E4608F101001FFA80F85D480088404536
:1059900000DCCFE706E00AF1010000F0FF0ABAF1EF
:1059A000080FCCDB00BF681CC5B200988542A5DBA0
:1059B00000BFBFE710B50246012000E050430B1EB8
:1059C000A1F10104E1B2F9D110BD2DE9FF4F81B081
:1059D000074691461E460E9D4FF0000A002439E00E
:1059E000301B401EC1B20A20FFF7E4FFB9FBF0F004
:1059F0000A21B0FBF1F201FB1208BAF1000F16D137
:105A0000701EA04213DDB8F1000F0ED10020AB468E
:105A100005EBDB71491001FB0471009088B22B4645
:105A200020220299FFF73EFF12E04FF0010A00200A
:105A3000AB4605EBDB71491001FB0471009088B2A5
:105A400008F13001CAB22B460299FFF72BFF00BFC5
:105A5000601CC4B2B442C3DB05B0BDE8F08F2DE9D1
:105A6000FF4F82B0064692461F46DDE90F480020F0
:105A7000019000255CE0781B401EC1B20A20FFF7B0
:105A800099FFBAFBF0F00A21B0FBF1F201FB120919
:105A9000019840BB781EA84236DDB9F1000F31D124
:105AA00008F0800078B108F00100A34604EBDB7138
:105AB000491001FB0561009088B22346302203990A
:105AC000FFF7F0FE0EE008F00100A34604EBDB71E7
:105AD000491001FB0561009088B2234620220399FA
